:020000040000fa
:10000000f07f00207dde02007f060200870d0200e7
:1000100000000000000000000000000000000000e0
:100020000000000000000000000000002f0202009d
:1000300000000000000000002f0202003100030059
:100040002f0202002f0202002f0202002f020200e4
:10005000690703002f0202002f0202002f02020094
:100060002f020200a57f01002f0202002f020200d2
:100070002f0202002f02020061c401002f020200c1
:100080002f0202002f0202002f020200b1450300de
:100090002f02020000000000000000002f020200fa
:0c00a0002f020200000000002f020200ee
:020000040000fa
:1000ac00000100ff3f3e0181b0a90fb1000000002c
:1000bc0003b10181b00200840000000003b1018192
:1000cc00b0b001aa0000000007b10181b0b002a8d5
:1000dc000000000003b10181b0b001aa00000000d3
:1000ec00f8b20181b0b0ab010000000007b1018192
:1000fc00b0b000840000000007b10181b0b00084f2
:10010c0000000000fdf10000b0b0aa00ffff010ce0
:10011c00100a0000204c6e007404000003b1018131
:10012c00b002008400000000d9f10000b0b0a800bb
:10013c00ffff010007b10181b0b000840000000096
:10014c0007b10181b0b000840000000007b101814b
:10015c00b0b0008400000000a9f10000b0b0a8000d
:10016c00ffff01009df10000b0b0a800ffff0100ef
:10017c0091f10000b0b0a800ffff010085f1000074
:10018c00ab3f2200ffff010e0e0400004072c401c1
:10019c0000ca01040000000069f10000ab3f280018
:1001ac00ffff010e10040000526cd60100dc0104ac
:1001bc00000000004df10000b0a92600ffff010c6b
:1001cc000a040000101642004804000007b1018127
:1001dc00b0b000840000000007b10181b0b0008411
:1001ec000000000007b10181b0b0008400000000e5
:1001fc0007b10181b0b000840000000007b101819b
:10020c00b0b0008400000000f9f00000b0aa0900b2
:10021c00ffff010c0c0400001a2448004e040000df
:10022c0007b10181b0b000840000000007b101816a
:10023c00b0b0008400000000c9f00000ab04b200b4
:10024c00ffff010f1004000026da0282030088036e
:10025c0004000000adf00000ab3f3c00ffff010fbd
:10026c000c0400002aa206ce0600d40604000000ee
:10027c0007b10181b0b000840000000007b101811a
:10028c00b0b000840000000007b10181b0b0008460
:10029c000000000007b10181b0b000840000000034
:1002ac0007b10181b0b000840000000007b10181ea
:1002bc00b0b000840000000007b10181b0b0008430
:1002cc00000000003df00000b0ab3200ffff010e5b
:1002dc00240400002c6ccc0100d2010400000000ae
:1002ec0021f00000b0ab1600ff101901101ed8044d
:1002fc000000920504960501b2057e000001000085
:10030c0000000000fdef0000b0ab0600ff101d0167
:10031c00153028340192010c9e0100a60104000046
:10032c00bc012c9e0100010000000000d5ef000074
:10033c00ab08b100ffff0100c9ef0000b0b0aa008c
:10034c00ff1019010c020608010c0410051c0a0010
:10035c000001007f00007d00000000000000000094
:10036c000000000000000000000000000000000081
:10037c000000000000000000000000000000000071
:10038c000000000000000000000000000000000061
:10039c000000000000000000000000000000000051
:10236c00f8b5c046f8bc08bc9e46704745d2020082
:10237c00cd7e03002d2e0300f8b5c046f8bc08bc7a
:08238c009e4670471dd20200bd
:020000040000fa
:10239400145f000001000000225f00000100000043
:1023a400805f0000010000009c5f0000a907b1806d
:1023b40028600000b0b0a8806a600000010000003e
:1023c4006e600000010000006a600000010000006f
:1023d40064600000b0b0aa8096600000ab76b28062
:1023e400446100000100000040610000aa3f378002
:1023f40086610000b0b0a88092610000b0b0aa80ed
:10240400cc610000b0b0a880de61000001000000d3
:10241400d8610000b0b0a880e061000001000000b5
:102424000a620000010000001862000001000000c0
:10243400426200000100000050620000aa0db28058
:10244400b0620000b0ab0c80f8640000b0b0a880ab
:10245400fa640000b0b0a880fc640000b0b0a880aa
:10246400fe640000ab3f048010820000b0ab1c800f
:10247400acaa0000ab3f068090ae0000b0ab228057
:10248400c0b90000b0ab188054bd0000b0ab1480dc
:10249400e0c00000b0ab328060c40000c0ddff7f4c
:1024a400c8c70000b0ab1c8024cb0000b0ab0a80ce
:1024b40058ce000034deff7f8cd10000ab3f1a8081
:1024c400acd4000001000000d6d40000a80fb180f5
:1024d400e4d40000b0b0a880e4d40000b0ab06801f
:1024e40054d70000a80fb18074d70000b0b0a88002
:1024f40076d70000b0b0a88082d7000001000000a9
:1025040080d700000100000058da0000b0ab24803e
:1025140000dd0000b0ab18808cdf0000b0ab06809b
:1025240010e20000ab3f048004e70000b0ab1e8063
:1025340050e90000ab3f1e808ceb0000b0ab0e8076
:10254400aced0000b0ab1480c0ef0000b0ab108065
:10255400d8f30000b0ab2880dcf50000b0ab0a80f3
:10256400d0f90000b0ab1c80b8fb0000b0ab088011
:102574008cfd0000aa3f058060ff0000b0ab1c800a
:1025840030010100b0ab1280d0040100b0ab088070
:1025940098060100b0ab18805c080100b0ab1e8047
:1025a400180a0100b0ab0a80bc0b010094dcff7f69
:1025b400600d0100b0ab0880040f0100b0ab0480d3
:1025c400a4100100b0ab048044120100b0ab14802d
:1025d400e0130100b0ab048020170100b0ab1480fd
:1025e400b8180100b0ab0880481a0100ab07b180ed
:1025f400d41b0100b0ab04805c1d0100b0ab0e80a5
:10260400e01e0100b0ab068058200100b0ab06808c
:10261400d0210100aa3f0f8044230100b0ab0a80ff
:10262400b8240100b0ab04809c270100b0ab048047
:1026340004290100b0ab0a806c2a0100b0b0aa8062
:10264400d02b0100b0ab0880342d0100b0ab128058
:10265400902e0100b0ab08804c310100b0ab148067
:10266400a2320100b0ab0c80f8330100b0ab04809f
:1026740040350100b0ab0a8088360100ab14b2804b
:10268400d0370100b0ab0a8018390100b0ab068026
:10269400603a0100b0b0aa80a83b0100b0b0aa80a3
:1026a400343e0100b0ab1e80703f0100b0ab04802b
:1026b400ac400100010000002c430100b0ab1280cb
:1026c40060440100b0ab0c8094450100b0ab1480b1
:1026d400c846010001000000fc470100ab08b180be
:1026e4002c490100b0ab08805c4a0100b0ab1c80ef
:1026f4008c4b0100b0ab0680bc4c0100ab3f0680a4
:10270400ec4d0100b0ab04801c4f0100b0ab0a805b
:1027140048500100b0ab1280a4520100ab07b18055
:10272400cc530100b0ab1680f2540100010000004c
:10273400ec540100b0ab048010560100b0ab0c8027
:1027440034570100b0ab0c8084590100b0ab088051
:10275400a45a0100b0ab0c80c45b0100b0ab048090
:10276400e45c0100b0ab0880045e0100b0ab0c80f7
:10277400245f0100b0ab088044600100ab07b18066
:1027840064610100ab3f0a8084620100b0ab0a803f
:10279400a4630100b0ab1080c0640100ab07b1803a
:1027a400dc650100b0ab0c80f8660100b0ab0a80b8
:1027b400366901000100000030690100b0b0aa8050
:1027c400486a0100b0ab12805c6b0100b0ab1a80a8
:1027d4006c6c0100b0ab04807c6d0100b0ab068072
:1027e400a26f0100010000009c6f0100ab07b180e3
:1027f400a8700100b0ab0880b4710100b0ab0680d2
:10280400f4750100ab07b180f8760100b0ab088025
:10281400fc770100b0ab0880047a0100b0ab0880fb
:10282400007b0100b0ab0480fc7b0100ab08b180ed
:10283400f87c0100b0ab0480f47d0100b0ab1a80d9
:10284400f07e0100b0ab0480ec7f0100b0ab0880e7
:10285400e8810100b0ab0680e0820100ab07b180e3
:10286400d8830100b0ab0a80d0840100b0ab0e80e5
:10287400c8850100b0ab1280c0890100b0b0aa8045
:10288400b48a0100b0ab0680a88b010080daff7f18
:102894009c8c0100b0ab06808e8d0100010000000d
:1028a400888d0100b0ab0680788e0100b0ab128039
:1028b400688f0100b0ab108058900100b0ab20804d
:1028c400449101000100000030920100b0ab068089
:1028d4001c930100ab0ab28008940100b0b0aa8036
:1028e400e8950100ab07b180d0960100b0ab0a8037
:1028f400b8970100b0ab06808c990100b0ab06809c
:10290400709a0100b0ab0e80409c0100b0ab0c800b
:10291400209d0100b0ab1280009e0100ab08b18085
:10292400e09e0100b0b0aa80be9f0100010000003b
:10293400b89f0100b0ab128078a10100b0ab0a804f
:1029440054a20100b0ab0c8012a4010001000000ed
:10295400eca40100b0ab1e80c4a50100b0ab0480a0
:102964009ca601003cd8ff7f74a70100b0ab128085
:102974004ca80100b0b0aa8024a90100b0ab148017
:10298400fca90100b0ab0680d4aa0100010000003c
:10299400aaab010001000000a4ab0100ab07b180a9
:1029a40078ac0100b0ab06804cad0100b0ab0e803a
:1029b40020ae0100b0ab1080f4ae0100b0ab1280c9
:1029c400c8af010008d9ff7f76b101000100000003
:1029d40048b20100b0ab128016b301000100000040
:1029e40010b30100b0ab0480dcb30100b0ab0880cd
:1029f400a8b40100ab3f068074b50100b0ab1080f1
:102a040040b60100ab07b1800cb70100b0ab068043
:102a1400acb801000100000076b90100010000001b
:102a240070b90100ab07b18038ba0100ab3f068032
:102a340000bb010050d7ff7f60bd0100b0ab088030
:102a440022be0100b0ab1880e4be0100ab07b18028
:102a5400a4bf0100b0ab088064c00100b0b0aa807c
:102a640024c10100b0ab0880e4c1010001000000f2
:102a74006cc30100010000002ac401000100000031
:102a8400e8c40100ab07b180a4c50100b0ab1a8053
:102a940060c60100b0ab0e801cc70100b0ab04805f
:102aa400d8c70100b0b0aa8094c80100b0ab0a80b6
:102ab40050c90100ab08b18094cb0100ab07b180d1
:102ac4004ccc0100b0ab108004cd0100b0ab108041
:102ad400bccd0100b0ab0c8074ce0100b0ab04805f
:102ae4002ccf0100b0ab1080e4cf0100b0ab10805c
:102af4009cd00100b0ab108054d10100b0ab068073
:102b040008d20100b0ab0480bcd201000100000077
:102b140070d30100ab07b18024d40100ab08b180ad
:102b24000cd70100ab08b180bcd70100b0ab068064
:102b34006cd80100b0ab06801cd90100b0ab0a8090
:102b4400ccd90100b0ab04807cda0100b0ab0680c4
:102b54002cdb0100b0b0aa80d8db0100aa03b1804d
:102b640084dc0100b0ab128030dd0100a907b18024
:102b7400dcdd0100b0ab068088de0100010000004e
:102b840050e10100ab07b180fce10100b0ab06806d
:102b9400a4e20100b0ab0e804ce30100ab07b180ae
:102ba400f4e30100b0ab04809ce40100b0ab1280fc
:102bb40044e50100a907b180ece501000100000033
:102bc40094e60100b0ab0a8094e80100b0ab148035
:102bd40038e90100ab07b180dce90100b0ab048047
:102be40080ea0100b0ab068024eb0100aa3f038019
:102bf40074ec0100b0ab0880c0ed0100ab07b180fc
:102c040060ee0100b0ab088000ef0100b0ab1080b3
:102c1400a0ef0100b0ab148040f00100b0ab08801d
:102c2400e0f00100b0ab0e8080f10100b0ab0a808f
:102c340014f40100ab07b180b0f40100ab08b1801b
:102c44004cf50100b0ab0480e8f50100b0ab0480a2
:102c540084f60100b0ab088020f70100b0ab04801b
:102c6400bcf70100b0ab0880fcf80100b0ab0e80eb
:102c740096f901000100000090f90100ab08b18051
:102c840028fa0100b0ab0a80c0fa0100b0ab0e8094
:102c940058fb0100ab07b180f0fb0100aa0fb18023
:102ca40088fc0100ab07b18020fd0100b0ab0880b7
:102cb400b8fd01000100000050fe0100b0ab068029
:102cc400e6fe0100b0ab0c807cff0100b0b0aa802e
:102cd40010000200b0ab0480a4000200ab07b18076
:102ce4003801020001000000cc010200ab07b180f2
:102cf40060020200b0ab0880f4020200b0ab18809e
:102d040088030200b0ab0c801c040200ab08b18045
:102d1400b0040200ab07b180e0050200b0ab108044
:102d240008070200e8d3ff7f98070200ab07b180d1
:102d340028080200b0ab1080b8080200ab08b180cc
:102d440048090200b0ab0880d8090200b0aa0b8081
:102d5400680a0200b0ab0680f80a0200aa0fb1802c
:102d6400840b0200b0ab0680100c0200ab07b180ec
:102d74009c0c0200b0ab0680280d0200b0b0aa8003
:102d8400b40d0200ab08b180400e0200b0ab048069
:102d9400cc0e0200ab07b180ec0f0200b0ab168082
:102da40076100200b0ab088000110200b0b0aa8017
:102db4008a1102000100000084110200b0b0aa8050
:102dc4000c120200ab08b18094120200ab08b1806f
:102dd4001c130200ab3f2080a4130200b0ab06809a
:102de4002c140200b0ab0480b4140200ab07b18011
:102df4003c150200b0ab0a80c4150200b0b0a88034
:102e04004c160200b0ab068012190200b0ab04806d
:102e140098190200b0ab06801c1a0200b0ab048003
:102e2400a01a0200b0ab0680241b0200b0b0aa8036
:102e3400a81b0200b0a904802c1c0200b0ab0a80bd
:102e4400b01c0200ab08b180341d0200b0b0aa80ef
:102e5400b81d0200b0ab0480c81e0200ab08b180ec
:102e64004a1f0200b0ab0880cc1f0200ab07b18040
:102e74004c200200b0ab1080cc200200b0ab048028
:102e84004c210200b0ab0e80cc210200ab07b18014
:102e94004c220200b0ab1080cc220200b0b0aa8059
:102ea4004c230200ab08b180ec250200b0ab0480d7
:102eb4006826020001000000e4260200b0ab0e8088
:102ec40060270200ab08b180dc270200aa03b180ae
:102ed40058280200b0aa1580d4280200ab08b1809b
:102ee40050290200b0ab0480cc290200ab07b180aa
:102ef400482a0200b0ab0680c42a0200b0b0a88001
:102f0400402b020001000000bc2b0200b0ab0e807d
:102f1400bc2c0200b0ab0480362d0200ab08b1809b
:102f2400342e0200b0aa0580ac2e0200010000007d
:102f3400242f0200ab3f08809c2f0200ab07b18016
:102f440014300200b0ab04808c300200b0ab0480bb
:102f540004310200b0ab0680fc310200ab07b18043
:102f640070320200aa03b180e4320200b0ab0480e4
:102f740058330200ab08b180cc330200b0b0aa8051
:102f840040340200ab08b180b4340200b0b0aa806f
:102f940028350200b0b0aa8094360200b0b0aa80ee
:102fa40006370200b0ab0880f0370200aa0fb180e8
:102fb40060380200b0ab0680d03802002cd1ff7f0d
:102fc40040390200b0ab0880b0390200b0ab0e80cb
:102fd400203a0200b0b0aa80903a0200b0ab16804a
:102fe400003b0200b0ab0680703b0200ab08b1802e
:102ff400e03b0200b0ab0a80503c0200b0b0aa80b3
:10300400c03c0200a907b180303d0200b0a9048091
:10301400a03d0200ab3f0280103e0200b0aa09802e
:10302400803e0200ab07b180f03e0200b0ab0480ea
:10303400603f020001000000ce3f0200b0b0aa8051
:103044003c400200b0ab0480a8400200b0ab068054
:1030540014410200b0ab048080410200b0b0aa80e9
:10306400ec4102000100000058420200b0b0aa8006
:10307400c4420200b0ab108030430200b0ab068003
:103084009c430200b0ab048008440200aa03b18050
:1030940074440200b0ab0a80e0440200b0ab068086
:1030a4004c450200b0ab0a80b8450200b0b0aa801b
:1030b40024460200b0ab048090460200b0b0aa805f
:1030c400fc460200b0ab048066470200b0ab04804b
:1030d400d0470200b0b0a8803c480200ab08b180e1
:1030e400a4480200ab07b1800c490200b0b0aa802a
:1030f40074490200ab3f0280dc490200ab07b18097
:10310400444a0200010000001c4b0200a803b180e5
:10311400844b0200b0b0aa80ec4b02000100000016
:10312400544c0200ab04b280bc4c0200ab07b1802b
:10313400244d0200ab3f04808c4d0200b0ab0680ee
:10314400f44d0200ab07b1808c500200a907b18096
:10315400f250020001000000c6510200b0a9228012
:103164002c520200ab08b18090520200aa3f0180a9
:10317400f4520200b0aa058058530200b0ab2c8070
:10318400bc530200b0b0a88020540200b0b0aa80a2
:1031940084540200b0ab0480e8540200b0b0aa80aa
:1031a4004c550200b0ab1080b0550200b0b0aa80fc
:1031b40014560200ab07b18078560200b0b0aa8062
:1031c400dc560200b0b0a88040570200ab07b180c3
:1031d40010580200aa03b18070580200b0b0aa804f
:1031e400d05802000100000030590200aa03b18047
:1031f40090590200b0ab0480f0590200b0b0aa802c
:10320400505a0200b0b0aa80b05a0200b0ab088095
:10321400105b0200ab07b180705b0200b0ab0a80a8
:10322400d05b020001000000305c020001000000dd
:10323400f85c020001000000285e0200b0ab0c80c4
:10324400865e020001000000e45e0200ab07b1806c
:10325400425f0200b0ab0680a05f0200ab07b18002
:10326400fe5f0200010000005c600200010000003b
:1032740020610200aa03b1807c610200ab08b18026
:10328400d8610200ab08b18034620200b0ab0680a2
:1032940090620200ab08b180ec620200b0ab048023
:1032a40048630200b0ab0e80a4630200010000007a
:1032b40000640200b0ab06805c640200ab08b1801d
:1032c400b8640200b0ab048078650200010000001d
:1032d400d4650200b0b0aa8030660200b0b0aa8003
:1032e4008c660200b0b0aa804c67020001000000a6
:1032f400a6670200b0b0aa800068020001000000c6
:103304005a680200b0ab068016690200aa03b180b5
:10331400306a0200b0aa0b80886a0200aa0fb1804a
:10332400e06a0200b0ab0480386b020001000000c8
:10333400906b0200ab07b180e86b0200b0b0aa80ca
:10334400406c0200aa03b180986c0200b0b0aa805d
:10335400f06c0200aa3f0180486d0200a907b18009
:10336400a06d0200a907b180f86d0200b0b0aa8078
:10337400506e0200b0ab0480a86e0200b0b0a8800a
:10338400006f0200a907b180586f0200b0b0aa8094
:10339400107002000100000066700200b0b0a88046
:1033a40018710200b0b0aa806c710200a93f0080bd
:1033b400c0710200a93f008014720200b0b0aa805c
:1033c40068720200b0b0aa80bc720200b0b0a880db
:1033d40010730200b0b0aa80647302000100000000
:1033e400b8730200b0ab04800c740200b0b0aa80c1
:1033f40060740200b0b0aa80b4740200b0b0a880b7
:1034040008750200b0b0a8805c750200ab07b180fb
:10341400b07502000100000004760200b0b0aa807a
:10342400b4760200aa03b18006770200b0ab06802e
:1034340064780200b0ab0c80b4780200aa03b180b7
:1034440004790200ab07b18054790200b0aa058068
:10345400fc790200a803b1804c7a0200a907b1806c
:103464009c7a0200a83f0180ec7a0200b0ab048091
:103474003c7b0200b0b0aa808c7b0200aa03b1801e
:10348400dc7b02008ccdff7f2c7c0200010000005d
:103494007c7c020001000000cc7c0200ab08b180ff
:1034a4001c7d0200b0b0aa806c7d0200b0ab048029
:1034b400bc7d0200ab08b1800c7e0200b0b0a880d5
:1034c4005c7e0200b0b0aa80ac7e0200b0b0aa80dc
:1034d400547f020001000000a27f0200b0ab148000
:1034e400f07f0200010000003e800200b0ab0480c7
:1034f4008c800200b0b0aa80da80020001000000d3
:10350400d0810200b0a906801c820200ab08b18001
:1035140068820200b0b0aa80b4820200b0ab068018
:1035240000830200010000004c830200b0b0aa80b6
:1035340098830200b0ab0480e4830200b0aa0d803b
:1035440030840200a907b1807c840200b0ab0680fd
:10355400c8840200b0b0aa801485020001000000f3
:1035640060850200aa03b180ac850200ab08b1807b
:10357400f8850200b0ab068044860200010000001a
:1035840090860200a80fb280dc86020001000000d1
:1035940028870200ab07b18074870200b0b0aa800c
:1035a4006489020001000000ae890200b0b0aa8064
:1035b400f8890200b0b0a880e48a0200a907b180ab
:1035c4002c8b0200b0ab2080748b0200ab08b1805e
:1035d400bc8b0200b0b0a880048c0200b0b0aa80fa
:1035e4004c8c0200b0a90480948c0200aa03b18020
:1035f400dc8c0200b0ab0e80248d0200b0b0aa8037
:103604006c8d020001000000b48d0200b0b0aa80ed
:10361400fc8d0200b0b0aa80448e0200b0a80580e0
:103624008c8e0200b0ab0480d48e0200ab08b18053
:103634001c8f0200b0ab0680648f0200b0ab108018
:10364400f88f0200b0ab04803e900200010000003d
:1036540084900200ab07b180ca9002000100000010
:1036640010910200d0ccff7f56910200b0b0aa8026
:1036740034920200ab07b18078920200ab08b180ab
:10368400bc920200ab08b18000930200b0b0aa80e3
:1036940044930200b0b0aa8088930200b0ab0680c5
:1036a400cc930200b0ab068010940200ab08b1804a
:1036b400549402000100000098940200b0b0aa8063
:1036c400dc940200b0b0a88020950200aa03b18067
:1036d40064950200b0b0a880a8950200a93f0280ba
:1036e400ec950200b0b0a88030960200d0caff7feb
:1036f40074960200a907b180b8960200aa03b180ab
:10370400fc960200b0a9068040970200b0b0a880e1
:1037140084970200aa03b180c8970200b0b0aa80bf
:103724000c98020001000000509802000100000003
:10373400e0980200a907b18022990200b0b0aa80e3
:103744006499020001000000a6990200b0aa058055
:10375400e8990200a907b1802a9a0200a907b1805a
:103764006c9a0200ab08b180889b0200aa03b18066
:10377400c89b0200aa03b180089c0200aa03b1807e
:10378400489c0200ab07b180889c0200b0b0aa80bc
:10379400c89c0200b0b0aa80089d0200b0b0aa8004
:1037a400489d0200b0b0aa80889d0200b0b0aa80f3
:1037b400c89d0200b0b0aa80089e0200aa03b1808e
:1037c400489e0200ab07b180889e0200b0b0aa8078
:1037d400c89e020001000000089f0200b0b0aa8049
:1037e400489f0200a907b180889f0200b0b0a8805a
:1037f400c89f0200b0b0aa8008a00200b0b0aa809e
:1038040048a00200b0b0aa8088a00200b0b0a8808e
:10381400c8a00200b0ab048008a1020001000000af
:1038240048a10200a907b18088a10200a907b180bc
:10383400c8a10200a803b18008a20200b0a90480b4
:1038440048a20200b0b0a88088a20200b0b0a8804c
:10385400c8a20200b0b0a88008a30200ab08b180df
:1038640048a30200ab08b18088a30200ab07b18073
:10387400c8a30200b0ab068008a40200ab07b18065
:1038840048a40200b0b0a88088a40200ab08b180ac
:10389400c8a40200b0b0aa8008a50200b0b0a880f5
:1038a40020a6020001000000a8a60200b0ab04801c
:1038b400e6a60200ab08b18024a7020001000000c4
:1038c40062a70200ab07b180a0a7020001000000bc
:1038d40068a80200ab08b180a4a80200b0b0aa8016
:1038e400e0a80200010000001ca90200b0b0aa80f8
:1038f40058a90200b0b0aa8094a90200b0b0aa806e
:10390400d0a90200b0ab04800caa0200b0b0aa8017
:1039140048aa02000100000084aa0200b0b0a880f6
:10392400c0aa020001000000fcaa0200b0b0aa80f4
:1039340038ab0200ab3f048074ab0200ab07b1802c
:10394400b0ab0200a907b180ecab0200a907b180bb
:1039540028ac0200a907b18064ac0200b0b0aa8010
:10396400a0ac020001000000dcac0200b0b0aa80f0
:1039740018ad0200b0b0aa8054ad0200a803b18013
:1039840090ad0200b0b0aa80ccad0200ab07b1800c
:1039940008ae0200b0aa0d8044ae0200aa0fb180a6
:1039a400c4ae0200b0ab148000af0200b0b0aa8075
:1039b4003caf02000100000078af0200b0b0a88064
:1039c400b4af0200aa03b180f0af0200b0b0aa8085
:1039d4002cb00200b0a90a8034b10200b0b0a880b3
:1039e400b4b10200ab08b180eeb1020001000000e6
:1039f40028b20200b0b0aa8062b20200b0b0aa80bd
:103a04009cb20200ab07b1809cb30200ab08b1804a
:103a1400d4b30200b0b0aa800cb40200b0b0aa8043
:103a240044b40200a907b1807cb40200ab07b180a2
:103a3400b4b40200b0ab1080ecb40200b0b0aa8001
:103a440024b50200ab08b1805cb50200ab08b180bc
:103a540094b50200b0ab0480ccb5020001000000b4
:103a640004b60200a907b1803cb6020001000000c0
:103a740074b60200b0b0a880acb60200b0b0a880a2
:103a8400e4b60200010000001cb70200ab08b180dc
:103a940054b70200b0b0aa808cb70200b0b0aa80bc
:103aa400c4b70200b0b0aa80fcb70200b0b0aa80cc
:103ab40034b80200b0b0aa806cb80200b0b0aa80da
:103ac400a4b80200b0b0a880dcb80200b0b0aa80ec
:103ad40014b90200b0b0aa804cb902000100000081
:103ae40084b90200a907b180bcb90200b0b0aa80b1
:103af400f4b90200010000002cba02000100000029
:103b040064bb0200b0ab06809abb0200b0ab048079
:103b1400d0bb0200b0b0aa8006bc0200b0b0aa803c
:103b24003cbc0200ab3f048072bc020001000000f8
:103b3400a8bc0200b0a90480dcbc0200b0b0aa801a
:103b440010bd0200b0b0aa8044bd0200b0b0aa808b
:103b540078bd0200b0b0aa80acbd0200a907b18054
:103b6400e0bd0200b0a9048014be0200b0a9048024
:103b740048be0200b0b0aa807cbe0200b0b0aa80e9
:103b8400b0be020001000000e4be0200010000001b
:103b940018bf0200010000004cbf0200ab08b18056
:103ba40080bf0200ab08b180b4bf02000100000076
:103bb400e8bf0200b0ab06801cc00200b0b0aa800f
:103bc40050c00200b0b0aa8084c00200ab08b1802b
:103bd400b8c00200b0ab048028c10200b0a90680be
:103be4005ac10200b0ab04808cc10200b0b0aa80fc
:103bf400bec10200b0b0aa80f0c10200ab07b18020
:103c040022c20200b0a9068054c20200ab07b180f0
:103c140086c20200b0b0aa80b8c20200ab08b1806c
:103c2400eac20200010000001cc3020001000000ff
:103c34004ec302000100000080c302000100000026
:103c440024c40200b0b0aa8054c4020001000000e1
:103c540084c40200ab08b180b4c40200aa03b180da
:103c6400e4c40200b0a9088014c50200b0a9088009
:103c740044c5020038c4ff7f74c50200b0b0aa80f6
:103c8400a4c50200b0b0a880d4c5020001000000a1
:103c940004c60200ab08b18034c60200b0b0a880ec
:103ca40064c602000100000094c60200b0b0aa80fd
:103cb400c4c6020001000000f4c60200b0b0aa802d
:103cc40024c70200b0b0a88054c70200b0b0a880d6
:103cd40084c70200b0b0aa80b4c70200010000008b
:103ce400e4c70200b0b0a88014c80200b0b0a88035
:103cf40044c802000100000074c80200b0b0a880eb
:103d0400a4c80200a93f0280d4c80200b0b0a880b1
:103d140004c90200a803b18034c9020001000000f4
:103d240064c90200a907b18094c90200b0b0a88098
:103d3400c4c90200aa0fb180d4ca02000100000065
:103d44003acb0200a907b18068cb0200b0b0aa80c8
:103d540096cb0200b0b0aa80c4cb0200b0b0a88059
:103d6400f2cb02000100000020cc020001000000a0
:103d74004ecc020001000000e4cc0200b0b0a880e8
:103d8400accd0200b0b0aa80d8cd0200b0b0aa80f9
:103d940004ce0200b0b0aa8030ce0200a907b180e0
:103da4005cce0200a907b18088ce0200aa3f018040
:103db400b4ce0200b0b0aa80e0ce02000100000040
:103dc4000ccf02000100000038cf0200b0b0aa807e
:103dd40064cf02000100000090cf02000100000047
:103de400bccf020001000000e8cf0200b0b0aa80fe
:103df40014d00200b0a9048040d00200a907b18009
:103e04006cd002000100000098d00200b0b0a8807d
:103e1400c4d00200b0a80580f0d00200a803b1808d
:103e24001cd10200b0b0aa8048d1020001000000f9
:103e340074d10200b0b0aa80a0d10200b0b0a880b2
:103e4400ccd10200a803b180f8d102000100000027
:103e540024d20200b0b0a88050d20200b0b0a88032
:103e64007cd20200ab08b180a8d20200b0b0aa8014
:103e7400d4d20200b0b0aa8000d30200b0b0aa80ad
:103e84002cd3020001000000f4d302000100000062
:103e940020d40200aa0fb1804ed50200a93f0280af
:103ea40078d50200b0b0aa80a2d50200b0b0aa8032
:103eb400ccd50200a803b180f6d50200b0b0aa8028
:103ec40020d60200010000004ad6020001000000d2
:103ed40074d60200a93f02809ed60200a93f028048
:103ee400c8d6020001000000f2d60200a803b18087
:103ef4001cd70200ab08b18046d70200b0b0aa803c
:103f040070d70200b0b0a8809ad702000100000068
:103f1400c4d70200b0b0a880eed70200b0b0aa8027
:103f240018d80200ab07b180d4d80200b0b0aa8080
:103f3400fcd80200a8c1ff7f24d90200b0b0aa8037
:103f44004cd90200b0b0aa8074d90200b0b0aa80e3
:103f54009cd9020001000000c4d90200b0b0aa80bc
:103f6400ecd90200aa03b18014da020001000000b7
:103f74003cda0200b0b0a88064da0200b0b0a880d5
:103f84008cda0200b0b0aa80b4da0200b0b0aa8021
:103f9400dcda02000100000004db0200b0b0aa80f9
:103fa4002cdb0200b0b0aa8054db0200b0b0aa80bf
:103fb4007cdb0200a803b180a4db0200a803b1806b
:103fc400ccdb020001000000f4db0200b0b0a880ea
:103fd4001cdc0200b0a8098044dc0200b0b0aa8056
:103fe4006cdc020020c2ff7f94dc0200a803b180d5
:103ff400bcdc0200b0b0a880e4dc0200b0b0aa804f
:104004000cdd0200b0b0aa8034dd0200b0b0aa809a
:104014005cdd0200a80fb18084dd0200aa03b18038
:10402400acdd0200b0b0a880d4dd0200b0b0a8803e
:10403400fcdd0200b0b0aa8024de0200b0b0aa8089
:104044004cde02000100000074de0200b0b0aa8061
:104054009cde0200ab07b180c4de0200aa03b1807b
:10406400ecde02000100000014df0200b0b0aa8000
:104074003cdf0200b0b0aa8064df0200010000004f
:104084008cdf020001000000b4df0200b0b0aa809f
:10409400dcdf02000100000004e00200b0b0a880f0
:1040a4002ce002000100000054e00200a803b180eb
:1040b4007ce00200b0b0a880a4e00200a803b180b4
:1040c400cce00200b0a90480f4e00200b0b0a88003
:1040d4001ce10200b0b0aa8044e10200aa03b1804e
:1040e4006ce1020001000000c4e10200b0b0a8804d
:1040f4004ae20200b0b0aa8070e2020001000000af
:1041040096e2020001000000bce20200010000008f
:10411400e2e20200b0b0a88008e30200b0b0a880d8
:104124002ee30200b0a80f8054e30200b0b0aa80ce
:104134007ae30200b0b0aa80a0e30200ab08b18029
:10414400c6e3020001000000ece30200ab08b1800a
:1041540012e40200b0a8058090e40200b0b0aa8086
:10416400b4e40200b0b0aa80d8e40200b0b0aa80df
:10417400fce40200b0a8058020e50200b0b0a880ed
:1041840044e50200b0b0aa8068e50200b0b0aa809d
:104194008ce5020001000000b0e50200b0b0a88088
:1041a400d4e50200a803b180f8e50200a803b180b9
:1041b4001ce60200b0b0a88040e602000100000046
:1041c40064e602000100000088e60200010000002d
:1041d400ace6020001000000d0e60200b0b0aa8004
:1041e400f4e60200b0b0a88018e70200a83f0180fe
:1041f4003ce70200b0b0a88060e70200a93f02805b
:1042040084e70200a83f0180a8e70200aa03b18066
:10421400cce7020001000000f0e70200010000000a
:1042240014e802000100000038e80200aa0fb1807f
:104234005ce80200a803b18080e80200ab08b1800a
:10424400a4e80200b0b0a880c8e80200b0b0a8801a
:10425400ece80200b0b0aa8010e90200a803b18023
:1042640034e90200b0b0aa8058e90200010000005d
:104274007ce90200b0b0a880a0e90200b0b0aa8036
:10428400c4e90200a803b180e8e90200b0b0a88044
:104294000cea02000100000030ea0200a907b18024
:1042a40004eb02000100000054eb020001000000d6
:1042b40078eb020001000000c8eb020001000000de
:1042c400eceb0200b0a80d800eec0200b0b0aa80a6
:1042d40030ec0200b0b0aa8052ec0200a907b18011
:1042e40074ec0200b0b0aa8096ec0200b0b0aa80d0
:1042f400b8ec0200b0b0aa80daec0200b0b0a8803a
:10430400fcec0200010000001eed020001000000b0
:1043140040ed02000100000062ed0200b0b0aa808e
:1043240084ed020001000000a6ed0200010000007f
:10433400c8ed020001000000eaed020001000000e7
:104344000cee0200b0b0aa802eee020001000000c4
:1043540050ee0200b0b0a88072ee0200ab07b1804c
:1043640094ee020001000000f8ef0200b0b0a88053
:1043740018f00200b0b0a88038f00200b0b0aa80f3
:1043840058f00200ab07b18078f00200ab07b180af
:1043940098f002003cbdff7fb8f00200010000006d
:1043a400d8f002005cbdff7ff8f00200b0b0aa8034
:1043b40040f102000100000060f10200b0b0a880ea
:1043c40080f10200b0b0a880a0f10200b0b0a880d3
:1043d400c0f1020000beff7fe0f102000100000016
:1043e40000f202000100000020f2020001000000bf
:1043f40040f202000100000060f20200b0b0aa80a6
:1044040080f20200b0b0aa80a0f20200b0b0aa808c
:10441400c0f2020001000000e0f20200b0b0a88087
:1044240000f30200b0b0a88020f30200aa0fb1800c
:1044340040f30200b0b0aa8060f302000100000063
:1044440080f30200a803b180a0f302000100000081
:10445400c0f3020001000000e0f30200b0b0a88045
:1044640000f402000100000020f40200010000003a
:1044740040f40200b0b0a8807cf50200b0b0aa807d
:104484009af50200b0b0a880b8f50200ab08b1807c
:10449400d6f50200ab07b180f4f50200b0b0aa80f3
:1044a40012f602000100000030f60200b0b0a8804d
:1044b4004ef60200010000006cf60200010000004c
:1044c4008af6020001000000a8f60200a93f02805b
:1044d400c6f60200b0b0a880e4f60200b0b0aa802c
:1044e40002f70200b0b0aa8020f702000100000029
:1044f4003ef70200b0b0aa805cf70200a907b180c1
:104504007af70200b0b0a88098f70200b0b0aa8091
:10451400b6f70200b0b0a880d4f70200b0b0a8800b
:10452400f2f702001cbeff7fc8f80200b0b0a880fa
:10453400e4f80200a907b18000f90200b0b0aa8033
:104544001cf90200b0a8098038f90200b0a80b8059
:1045540054f902000100000070f90200ab07b180b9
:104564008cf90200b0b0aa80a8f90200b0b0aa8009
:10457400c4f90200b0b0a880e0f90200b0b0a8808d
:10458400fcf902000100000018fa0200010000001a
:1045940034fa02009cbbff7f50fa020001000000c5
:1045a4006cfa0200b0b0a88088fa0200b0b0a8800b
:1045b400a4fa020001000000c0fa0200b0b0aa8010
:1045c400dcfa020001000000f8fa02000100000019
:1045d40014fb0200b0b0a88030fb02000100000010
:1045e4004cfb02000100000068fb02000100000017
:1045f40084fb020001000000a0fb0200a803b180bc
:10460400bcfb0200a803b180d8fb0200a93f0280d2
:10461400f4fb0200a803b18010fc020001000000ba
:104624002cfc0200b0a90c8048fc02000100000030
:1046340064fc0200b0aa058080fc0200b0b0a8802f
:104644009cfc0200b0b0aa80b8fc0200010000008b
:10465400d4fc020001000000f0fc0200b0b0aa800b
:104664000cfd02000100000028fd02000100000012
:1046740044fd0200b0b0a88060fd0200b0a904802f
:104684007cfd0200b0b0a88098fd0200b0b0a88004
:10469400b4fd0200b0b0a880d0fd0200b0b0a88084
:1046a400ecfd0200b0b0aa8008fe0200a80fb180a1
:1046b40024fe02000100000040fe02000100000090
:1046c4005cfe0200010000002cff0200ab08b18078
:1046d40048ff020001000000d0ff020001000000ba
:1046e400eaff0200e0b9ff7f04000300b0b0aa8033
:1046f4001e00030001000000380003000100000058
:1047040052000300b0b0a8806c000300b0b0aa80cf
:104714008600030001000000a0000300b0b0a880e0
:10472400ba000300b0b0a880d4000300a803b1808d
:10473400ee000300b0b0aa8008010300b0b0a88066
:1047440022010300a907b1803c010300b0b0aa8094
:104754005601030054bbff7f7001030001000000f9
:104764008a010300010000000a020300ab08b180c3
:104774006c030300b0b0a88084030300b0b0a88029
:104784009c030300b0b0a880b4030300a907b18060
:10479400cc030300b0b0aa80e4030300b0b0a88047
:1047a400fc030300a803b18014040300b0b0a88084
:1047b4002c040300a803b18044040300b0b0a88013
:1047c4005c040300b0b0a88074040300b0b0aa80f5
:1047d4008c04030001000000a40403000100000095
:1047e400bc040300a907b180d4040300b0b0a880be
:1047f400ec040300aa03b18004050300aa03b180fa
:104804001c050300aa03b18034050300b0b0a880de
:104814004c050300b0b0a88064050300b0b0a880c4
:104824007c050300b0b0a88094050300b0b0a88054
:10483400ac050300b0b0a880c4050300b0b0a880e4
:10484400dc050300b0b0a880f405030001000000fb
:104854000c060300a803b180240603000100000035
:104864003c060300010000005406030001000000a0
:104874006c0603000100000084060300b0b0a880a9
:104884009c060300b0b0a880b4060300b0b0a880b2
:10489400cc06030001000000e40603000100000050
:1048a400fc060300010000001407030001000000df
:1048b4002c070300b0b0a880440703003cb9ff7f75
:1048c4005c070300b0b0a88074070300b0b0aa80ee
:1048d4008c070300a907b180a4070300b0a80580d2
:1048e400bc07030001000000d4070300010000001e
:1048f400ec070300b0b0a88004080300b0b0a8809f
:104904001c080300b0b0a88034080300b0b0a8802d
:104914004c080300a907b18064080300a80fb18004
:104924007c080300b0b0aa8094080300b0b0a8804b
:10493400ac080300a803b180c4080300b0b0aa8087
:10494400dc08030001000000f4080300010000007b
:104954006c09030001000000c4090300b0b0a88082
:10496400da09030001000000f0090300010000005f
:10497400060a0300b0b0a8801c0a0300b0b0a880e7
:10498400320a0300b0b0a880480a0300b0b0a8807f
:104994005e0a0300b0b0a880740a0300b0b0aa8015
:1049a4008a0a030001000000a00a030001000000bd
:1049b400b60a030001000000cc0a03000100000055
:1049c400e20a030001000000f80a030001000000ed
:1049d4000e0b0300b0a80780240b0300aa03b180c8
:1049e4003a0b0300b0b0a880500b0300b0b0a8800d
:1049f400660b0300b0b0aa807c0b0300b0b0a880a3
:104a0400920b0300b0b0a880a80b0300b0b0a8803c
:104a1400be0b0300b0b0a880d40b0300010000005b
:104a2400ea0b030001000000000c03000100000079
:104a34008e0c0300b0b0aa80140d0300b0b0a8809f
:104a4400280d0300b0b0a8803c0d0300b0b0a880ce
:104a5400500d0300b0b0a880640d0300b0b0a8806e
:104a6400780d0300b0b0a8808c0d0300b0b0a8800e
:104a7400a00d0300b0b0a880b40d0300b0b0a880ae
:104a8400c80d030001000000dc0d0300b0b0a880d5
:104a9400f00d0300b0b0aa80040e0300b0b0aa80e9
:104aa400180e0300010000002c0e0300b0b0a88013
:104ab400400e0300b0b0a880540e0300a80fb180cc
:104ac400680e0300b0b0a8807c0e0300a907b18073
:104ad400900e030001000000a40e0300b0b0a880f3
:104ae400b80e0300b0b0a880cc0e0300b0b0a8800c
:104af400e00e0300b0b0a880f40e03000100000033
:104b0400080f0300b0b0a8801c0f0300b0b0a88049
:104b1400300f030001000000440f0300a803b1801c
:104b2400580f0300010000006c0f0300b0b0a88010
:104b3400800f0300b0b0a880940f0300b0b0aa8027
:104b4400a80f0300b0b0a880bc0f0300a803b18075
:104b5400d00f0300b0b0aa80e40f030001000000ee
:104b6400f80f0300b0b0a8800c100300b0b0a88008
:104b740020100300b0b0a88034100300010000002e
:104b840048100300010000005c100300b0b0aa80cc
:104b940070100300010000008410030001000000f5
:104ba40098100300b0b0aa80ac100300b0b0a88085
:104bb400c010030001000000d4100300b0b0a880ae
:104bc400e8100300b0b0a880fc100300b0b0a880c7
:104bd40010110300b0b0a88024110300aa0fb18003
:104be40038110300010000004c1103000100000013
:104bf40060110300b0b0a88074110300b0b0a880a5
:104c040088110300010000009c1103000100000052
:104c14008a130300b0b0a8809c130300d8b4ff7fac
:104c2400ae130300b0b0a880c0130300b0b0a880d6
:104c3400d2130300b0b0a880e4130300b0b0a8807e
:104c4400f613030001000000081403000100000033
:104c54001a140300010000002c14030001000000da
:104c64003e140300b0b0aa8050140300b0b0aa8070
:104c740062140300b0b0a8807414030001000000a3
:104c840086140300010000009814030001000000d2
:104c9400aa140300b0b0a880bc14030001000000f3
:104ca400ce140300b0b0a880e0140300b0b0a88014
:104cb400f2140300a803b1800415030001000000ee
:104cc40016150300b0b0a8802815030001000000e9
:104cd4003a150300010000004c1503000100000018
:104ce4005e150300b0b0a880701503000100000039
:104cf40082150300b0b0a8809415030038b5ff7f77
:104d0400a615030001000000b8150300b0b0a88088
:104d1400ca150300b0b0a880dc1503000100000030
:104d2400ee150300b0b0aa8000160300a907b180f5
:104d34001216030001000000241603000100000005
:104d4400361603000100000060160300b0b0a8800e
:104d540070160300b0b0a8808016030001000000a4
:104d640090160300b0b0a880a0160300b0b0a880cd
:104d7400b0160300b0b0a880c01603000100000004
:104d8400d0160300b0b0a880e0160300b0b0a8802d
:104d9400f0160300b0b0a88000170300b0b0a880dc
:104da40010170300b0b0a88020170300a803b18037
:104db40030170300a803b18040170300a803b18093
:104dc40050170300b0b0a88060170300b0b0a880eb
:104dd40070170300b0b0a88080170300b0b0a8809b
:104de4009017030001000000a01703000100000059
:104df400b0170300b0b0a880c01703000100000082
:104e0400d017030020b3ff7fe01703000100000068
:104e1400f017030001000000001803000100000067
:104e24001018030001000000201803000100000016
:104e340030180300010000004018030001000000c6
:104e440050180300b0b0a88060180300b0b0a88068
:104e5400701803000100000080180300b0b0a8809f
:104e640090180300b0b0a880a0180300b0b0a880c8
:104e7400b0180300b0b0a880c0180300b0b0a88078
:104e8400d018030001000000e0180300b0b0a880af
:104e9400f0180300010000000019030001000000e5
:104ea40010190300b0b0aa8020190300010000000b
:104eb40030190300a803b18040190300b0b0aa80e0
:104ec40050190300b0b0a88060190300b0b0a880e6
:104ed40070190300010000008019030001000000a4
:104ee40090190300b0b0a880a0190300b0b0a88046
:104ef400b0190300b0b0a880c0190300010000007d
:104f0400d019030001000000e0190300b0b0a8802c
:104f1400f0190300b0b0a880001a0300b0b0a88054
:104f2400101a0300b0b0a880201a0300b0b0a88003
:104f3400301a0300b8b2ff7f401a0300b0b0a88053
:104f4400501a0300b0b0a880601a0300b0b0a88063
:104f5400701a030001000000801a03000100000021
:104f6400901a030001000000a01a030001000000d1
:104f7400b01a030001000000c01a03000100000081
:104f8400d01a030001000000e01a03000100000031
:104f9400f01a0300f0b2ff7f001b0300f4b2ff7f9e
:104fa400101b030001000000201b0300b0b0a88008
:104fb400301b030001000000401b0300b0a9048063
:104fc400501b0300b0b0a880601b03000100000068
:104fd400701b0300b0b0a880801b03000100000018
:104fe400381c030001000000481c030001000000fd
:104ff400fc1c0300c4b0ff7f0a1d03000100000075
:10500400181d0300b0b0a880261d03000100000095
:10501400341d0300b0b0a880421d0300010000004d
:10502400501d0300b0b0aa805e1d0300b0b0a8807c
:105034006c1d0300b0b0aa807a1d0300b0b0a88034
:10504400881d0300a80fb180961d03000100000015
:10505400a41d030001000000b21d0300b0b0aa802b
:10506400c01d030001000000ce1d0300b0b0aa80e3
:10507400dc1d030001000000ea1d03000100000024
:10508400f81d030001000000061e030001000000db
:10509400141e0300b0b0a880221e0300b0b0a88084
:1050a400301e0300010000003e1e0300010000004a
:1050b4004c1e0300b0b0a8805a1e0300010000007b
:1050c400681e030001000000761e0300a803b180df
:1050d400841e0300e0b1ff7f921e03000100000064
:1050e400cc1e0300a80fb1807c1f0300b0b0a880c1
:1050f400881f0300b0b0a880941f0300b0b0a8803c
:10510400a01f0300b0b0a880ac1f0300b0b0a880fb
:10511400b81f0300b0b0a880c41f0300b0b0a880bb
:10512400d01f0300b0b0a880dc1f0300b0b0a8807b
:10513400e81f0300b0b0a880f41f030001000000c2
:1051440000200300b0b0a8800c200300b0b0a880f9
:1051540018200300b0b0a88024200300b0b0a880b9
:1051640030200300b0b0a8803c200300b0b0a88079
:1051740048200300a803b18054200300a803b18091
:1051840060200300010000006c200300b0b0a88080
:1051940078200300010000008420030001000000c7
:1051a40090200300b0b0a8809c200300b0b0a88079
:1051b400a8200300b0b0a880b4200300a803b180e5
:1051c400c0200300b0b0a880cc2003000100000080
:1051d400d820030001000000e4200300b0b0a88040
:1051e400f0200300b0b0a880fc200300b0b0a88079
:1051f40008210300b0b0a8801421030001000000be
:105204002021030050afff7f2c2103000100000088
:1052140038210300b0b0a88044210300b0b0a880b6
:1052240050210300b0b0a8805c21030001000000fd
:1052340068210300b0b0a88074210300b0b0a88036
:1052440080210300010000008c210300b0b0a8807d
:1052540098210300b0b0a880a4210300b0b0a880b6
:10526400b0210300b0b0a880bc210300b0b0a88076
:10527400c8210300b0b0a880d4210300b0b0a88036
:10528400e0210300b0b0a880ec210300b0b0a880f6
:10529400f82103000100000004220300b0b0a8803c
:1052a40010220300010000001c220300a803b180a7
:1052b40028220300a803b18034220300b0b0a880e0
:1052c40040220300a803b1804c220300b0b0a880a0
:1052d40058220300b0b0a88064220300b0b0a880b4
:1052e40070220300010000007c2203000100000082
:1052f400882203000100000094220300e4aeff7f33
:10530400a0220300b0b0a880ac220300b0b0a880f3
:10531400b8220300b0b0a880c4220300010000003a
:10532400d022030001000000dc2203000100000081
:10533400e822030044afff7ff422030001000000d1
:1053440000230300010000000c230300b0b0a88078
:1053540018230300a80fb18024230300a80fb180f1
:1053640030230300a80fb1803c23030030afff7f3c
:1053740048230300b0b0a8805423030001000000b8
:1053840060230300010000006c230300b0b0a88078
:1053940078230300010000008423030001000000bf
:1053a40090230300010000009c230300b0b0a880f8
:1053b400a8230300b0b0a880542403000100000017
:1053c40060240300010000001e250300b0b0a88083
:1053d40028250300b0b0a88032250300a803b180bb
:1053e4003c250300a803b18046250300b0b0a88083
:1053f40050250300010000005a250300b0b0a88026
:1054040064250300010000006e2503000100000074
:105414007825030034adff7f8225030044adff7f70
:105424008c25030048adff7f962503004cadff7f1c
:10543400a025030001000000aa25030001000000cc
:10544400b425030001000000be2503000100000094
:10545400c825030001000000d2250300b0b0a880d5
:10546400dc250300b0b0a880e6250300010000009d
:10547400f0250300b0b0a880fa2503000100000065
:1054840004260300010000000e26030001000000b2
:10549400182603000100000022260300010000007a
:1054a4002c260300b0b0a88036260300b0b0a88034
:1054b40040260300b0b0a8804a260300b0b0a880fc
:1054c40054260300010000005e26030001000000d2
:1054d400682603000100000072260300b0b0a88013
:1054e4007c2603000100000086260300b0b0a880db
:1054f40090260300010000009a260300010000002a
:10550400a4260300b0b0a880ae260300b0b0a880e3
:10551400b8260300b0b0a880702703000100000083
:1055240078270300b0b0a88080270300b0b0a8801b
:1055340088270300b0b0a88090270300b0b0a880eb
:1055440098270300b0b0a880a0270300b0b0a880bb
:10555400a8270300b0b0a880b0270300b0b0a8808b
:10556400b8270300b0b0a880c0270300b0b0a8805b
:10557400c8270300b0b0a880d0270300b0b0a8802b
:10558400d8270300b0b0a880e0270300b0b0a880fb
:10559400e8270300b0b0a880f0270300b0b0a880cb
:1055a400f8270300b0b0a880002803000100000021
:1055b40008280300b0b0a88010280300b0b0a88069
:1055c40018280300b0b0a88020280300b0b0a88039
:1055d40028280300b0b0a88030280300b0b0a88009
:1055e40038280300b0b0a88040280300b0b0a880d9
:1055f40048280300b0b0a88050280300b0b0a880a9
:1056040058280300b0b0a88060280300b0b0a88078
:1056140068280300b0b0a88070280300b0b0a88048
:1056240078280300b0b0a88080280300b0b0a88018
:1056340088280300b0b0a88090280300010000006f
:105644009828030001000000a028030001000000c6
:10565400a828030001000000b02803000100000096
:10566400b8280300b0b0a880c0280300b0b0a88058
:10567400c8280300b0b0a880d0280300b0b0a88028
:10568400d8280300b0b0a880e0280300b0b0a880f8
:10569400e8280300b0b0a880f0280300b0b0a880c8
:1056a400f8280300b0b0a88000290300b0b0a88097
:1056b40008290300b0b0a88010290300b0b0a88066
:1056c400182903000100000020290300b0b0a880bd
:1056d40028290300b0b0a88030290300b0b0a88006
:1056e40038290300b0b0a88040290300b0b0a880d6
:1056f40048290300b0b0a88050290300b0b0a880a6
:1057040058290300b0b0a88060290300b0b0a88075
:1057140068290300b0b0a88070290300b0b0a88045
:1057240078290300b0b0a88080290300b0b0a88015
:1057340088290300b0b0a88090290300b0b0a880e5
:1057440098290300b0b0a880a0290300010000003c
:10575400a829030001000000b0290300b0b0a8800c
:10576400b8290300b0b0a880c0290300b0b0a88055
:10577400c829030001000000d02903000100000033
:10578400d829030001000000e02903000100000003
:10579400e829030001000000f029030001000000d3
:1057a400f8290300b0b0a880002a0300b0b0a88094
:1057b400082a030001000000102a03000100000071
:1057c400182a0300b0b0a880202a030001000000ba
:1057d400282a0300b0b0a880302a0300b0b0a88003
:1057e400382a0300b0b0a880402a0300b0b0a880d3
:1057f400482a0300b0b0a880502a0300b0b0a880a3
:10580400582a0300b0b0a880602a0300b0b0a88072
:10581400682a0300b0b0a880702a0300b0b0a88042
:10582400782a0300b0b0a880802a0300b0b0a88012
:10583400882a0300b0b0a880902a0300b0b0a880e2
:10584400982a0300b0b0a880a02a03000100000039
:10585400a82a0300b0b0a880b02a03000100000009
:10586400b82a0300b0b0a880c02a030001000000d9
:10587400c82a030001000000d02a0300b0b0a880a9
:10588400d82a030001000000e02a0300b0b0a88079
:10589400e82a030001000000f02a0300b0b0a88049
:1058a400f82a0300b0b0a880002b0300b0b0a88091
:1058b400082b0300a803b180102b0300a803b180b8
:1058c400182b0300b0b0a880202b030001000000b7
:1058d400282b0300b0b0a880302b0300b0b0a88000
:1058e400382b0300b0b0a880402b0300b0b0a880d0
:1058f400482b0300b0b0a880502b0300b0b0a880a0
:10590400582b0300b0b0a880602b030001000000f6
:10591400682b0300b0b0a880702b0300b0b0a8803f
:10592400782b0300b0b0a880802b03000100000096
:10593400882b0300b0b0a880302c030001000000c5
:10594400382c0300b0b0a880902c0300b0b0a8801d
:10595400962c0300b0b0a8809c2c0300b0b0a880a3
:10596400a22c0300b0b0a880a82c0300b0b0a8807b
:10597400ae2c030001000000b42c0300b0b0a880da
:10598400ba2c0300b0b0a880c02c0300b0b0a8802b
:10599400c62c0300b0b0a880cc2c0300b0b0a88003
:1059a400d22c0300b0b0a880d82c0300b0b0a880db
:1059b400de2c0300b0b0a880e42c0300b0b0a880b3
:1059c400ea2c0300b0b0a880f02c0300b0b0a8808b
:1059d400f62c0300b0b0a880fc2c0300b0b0a88063
:1059e400022d0300b0b0a880082d0300b0b0a88039
:1059f4000e2d0300b0b0a880142d0300b0b0a88011
:105a04001a2d0300b0b0a880202d0300b0b0a880e8
:105a1400262d0300b0b0a8802c2d0300b0b0a880c0
:105a2400322d0300b0b0a880382d0300010000001f
:105a34003e2d0300b0b0a880442d0300b0b0a88070
:105a44004a2d030001000000502d0300b0b0a880cf
:105a5400562d0300b0b0a8805c2d0300b0b0a88020
:105a6400622d0300b0b0a880682d0300b0b0a880f8
:105a74006e2d030001000000742d0300b0b0a88057
:105a84007a2d0300b0b0a880802d0300b0b0a880a8
:105a9400862d0300b0b0a8808c2d0300b0b0a88080
:105aa400922d0300b0b0a880982d030001000000df
:105ab4009e2d030001000000a42d0300010000003e
:105ac400aa2d030001000000b02d0300b0b0a8808f
:105ad400b62d0300b0b0a880bc2d03000100000067
:105ae400c22d030001000000c82d0300b0b0a8803f
:105af400ce2d0300b0b0a880d42d0300b0b0a88090
:105b0400da2d0300b0b0a880e02d030001000000ee
:105b1400e62d0300b0b0a880ec2d030001000000c6
:105b2400f22d0300b0b0a880f82d030094a7ff7fe6
:105b3400fe2d0300010000004a2e030001000000b6
:105b4400b82e030001000000bc2e0300b0b0a880f2
:105b5400c02e0300b0b0a880c42e030001000000d2
:105b6400c82e030001000000cc2e03000100000039
:105b7400d02e030001000000d42e03000100000019
:105b8400d82e030001000000dc2e030001000000f9
:105b9400e02e030001000000e42e030001000000d9
:105ba400e82e030001000000ec2e030001000000b9
:105bb400f02e030001000000f42e03000100000099
:105bc400f82e030001000000fc2e03000100000079
:105bd400002f030001000000042f03000100000057
:105be400082f0300010000000c2f03000100000037
:105bf400102f030001000000142f03000100000017
:105c0400182f0300010000001c2f030001000000f6
:105c1400202f030001000000242f030001000000d6
:105c2400282f0300010000002c2f030001000000b6
:105c3400302f030001000000342f03000100000096
:105c4400382f0300010000003c2f03000100000076
:105c5400402f030001000000442f03000100000056
:105c6400482f0300010000004c2f03000100000036
:105c7400502f030001000000542f03000100000016
:105c8400582f0300010000005c2f030001000000f6
:105c9400602f030001000000642f030001000000d6
:105ca400682f0300010000006c2f030001000000b6
:105cb400702f030001000000742f03000100000096
:105cc400782f0300010000007c2f03000100000076
:105cd400802f030001000000842f03000100000056
:105ce400882f0300b0b0a8808c2f0300b0b0a88028
:105cf400902f030001000000942f03000100000016
:105d0400982f0300010000009c2f030001000000f5
:105d1400ac2f030028a4ff7fb02f03000100000074
:105d2400b42f030001000000b82f0300010000009d
:105d3400bc2f0300b0b0a880c02f030001000000f6
:105d4400d02f030001000000d42f03000100000045
:105d5400d82f030001000000dc2f0300cca4ff7f38
:105d6400e02f030001000000e42f03000100000005
:105d7400e82f0300b0b0a880ec2f0300b0b0a880d7
:105d8400f02f0300b0b0a880f42f0300b0b0a880b7
:105d9400f82f0300b0b0a880fc2f0300b0b0a88097
:105da40000300300b0b0a88004300300b0b0a88075
:105db40008300300b0b0a8800c300300b0b0a88055
:105dc40010300300b0b0a88014300300b0b0a88035
:105dd400b430030001000000c430030001000000df
:105de400d430030001000000d8300300010000009b
:105df4000a310300b0b0a8800c310300b0b0a88011
:105e04000e310300b0b0a88010310300b0b0a880f8
:105e140012310300b0b0a88014310300b0b0a880e0
:105e240016310300b0b0a88018310300b0b0a880c8
:105e34001a310300b0b0a8801c310300b0b0a880b0
:105e44001e310300b0b0a88020310300b0b0a88098
:105e5400223103000100000024310300b0b0a88007
:105e640026310300b0b0a8802831030001000000ef
:105e74002a310300010000002c310300b0b0a880d7
:105e84002e31030001000000303103000100000046
:105e9400323103000100000034310300010000002e
:105ea4003631030001000000383103000100000016
:105eb4003a310300b0b0a8803c3103000100000077
:105ec4003e310300010000004031030001000000e6
:105ed40042310300b0b0a88044310300b0b0a880c0
:105ee40046310300b0b0a88048310300b0b0a880a8
:105ef4004a310300b0b0a8804c310300b0b0a88090
:105f04004e3103000100000050310300b0b0a880fe
:105f140052310300b0b0a88054310300b0b0a8805f
:105f24005631030001000000583103000100000055
:105f34007c310300b0b0a8807c310300b0b0a880ed
:105f44007c310300b0b0a8807c310300b0b0a880dd
:105f54007c310300010000007c310300b0b0a88054
:105f64007c310300b0b0a8807c310300b0b0a880bd
:105f74007c310300b0b0a8807c310300b0b0a880ad
:105f84007c310300b0b0a8807c310300b0b0a8809d
:105f94007c310300b0b0a8807c310300b0b0a8808d
:105fa4007c310300b0b0a8807c310300b0b0a8807d
:105fb4007c310300010000007c310300010000007b
:105fc4007c310300010000007c310300b0b0a880e4
:105fd4007c310300b0b0a8807c310300b0b0a8804d
:105fe4007c310300b0b0a8807c310300b0b0a8803d
:105ff4007c310300b0b0a8807c310300b0b0a8802d
:106004007c310300010000007c310300b0b0a880a3
:106014007c310300b0b0a8807c310300b0b0a8800c
:106024007c310300b0b0a8807c310300b0b0a880fc
:10603400843103000100000084310300b0b0a88063
:10604400843103000100000084310300b0b0a88053
:1060540084310300010000008431030001000000ca
:1060640084310300010000008431030001000000ba
:1060740084310300b0b0a88084310300b0b0a8809c
:1060840084310300b0b0a88084310300b0b0a8808c
:1060940084310300b0b0a88084310300b0b0a8807c
:1060a40084310300b0b0a88084310300b0b0a8806c
:1060b40084310300b0b0a88084310300b0b0a8805c
:1060c40084310300b0b0a8808c31030001000000cb
:1060d4008c310300b0b0a8808c310300b0b0a8802c
:1060e4008c310300010000008c310300b0b0a880a3
:1060f4008c310300b0b0a8808c310300b0b0a8800c
:106104008c310300b0b0a8808c310300b0b0a880fb
:106114008c310300010000008c310300b0b0a88072
:106124008c310300b0b0a8808c310300b0b0a880db
:106134008c310300010000008c310300b0b0a88052
:106144008c310300b0b0a8808c310300b0b0a880bb
:106154008c310300b0b0a8808c310300b0b0a880ab
:106164008c310300b0b0a8808c310300b0b0a8809b
:106174008c310300b0b0a8808c310300b0b0a8808b
:106184008c310300b0b0a8808c310300b0b0a8807b
:106194008c310300b0b0a8808c310300b0b0a8806b
:1061a4008c310300b0b0a8808c310300b0b0a8805b
:1061b4009431030001000000943103000100000049
:1061c4009431030001000000943103000100000039
:1061d40094310300b0b0a880ec310300010000004a
:1061e400ec31030001000000ec3103000100000069
:1061f400ec310300b0b0a880f431030001000000ca
:1062040020320300010000001e32030001000000e0
:106214001c320300010000001a32030001000000d8
:1062240018320300010000001632030001000000d0
:106234001a320300010000002832030001000000ac
:10624400243203000100000020320300010000009a
:106254001c3203000100000018320300010000009a
:10626400143203000100000010320300010000009a
:106274000c3203000100000008320300010000009a
:10628400043203000100000000320300010000009a
:10629400fc31030001000000f8310300010000009c
:1062a400f431030001000000f0310300010000009c
:1062b400ec31030001000000e8310300010000009c
:1062c400e431030001000000e0310300010000009c
:1062d400dc31030001000000e03103000100000094
:020000040000fa
:1062e400746f74616c3a20256400667265653a20a7
:1062f400256400000400000006000000cc760000c5
:10630400080000000a000000d57600000c00000020
:106314000e000000de7600001000000012000000f5
:10632400e27600001400000016000000756300000f
:10633400180000001a000000e67600001c000000af
:106344001e000000e76d0000200000002200000095
:10635400ea7600002400000026000000f676000023
:1063640025733a202564202564006970006d6163fb
:10637400006d6c65005478546f74616c3a20256428
:1063840000000000040000001c760000080000006b
:10639400267600000c000000327600001000000099
:1063a4004176000014000000497600001800000047
:1063b4005a7600001c0000006176000020000000f6
:1063c4006c760000240000007576000028000000b0
:1063d400857600002c0000008d7600003800000057
:1063e40095760000400000009e76000025733a2058
:1063f4002575005278546f74616c3a2025640072dc
:10640400657365740000000000000000367400002d
:1064140002000000447400000400000052740000f4
:10642400060000005d7400000800000069740000ac
:106434000a000000757400000c0000008574000060
:106444000e0000009a74000010000000bb740000ed
:1064540025733a2025640000000000001074000039
:10646400080000001a7400000400000023740000f7
:106474000c0000002d7400002d760000ec6f00006d
:10648400e5730000eb730000f1730000206f726984
:1064940067696e3a257300006164640064656c008a
:1064a4006c696e6b6c6f63616c00726c6f63006d12
:1064b4006c65696400506172746974696f6e204917
:1064c400443a20257500576569676874696e673ab0
:1064d40020256400446174612056657273696f6e8f
:1064e4003a20256400537461626c652044617461d0
:1064f4002056657273696f6e3a202564004c65619d
:1065040064657220526f757465722049443a20257f
:1065140064002d700076657273696f6e00257300d8
:106524002530347800747275650066616c7365009b
:10653400617069002564006c6576656c005b0031f0
:10654400352e34005d00424252205072696d6172f2
:10655400793a0073657276657231363a203078255f
:10656400303458007365716e6f3a20202020256402
:106574000064656c61793a202020202564207365cd
:1065840063730074696d656f75743a202025642007
:106594007365637300424252205072696d6172796f
:1065a4003a204e6f6e650025642064426d004c4ea7
:1065b40041206761696e2025642064426d006c6e21
:1065c400616761696e00757000646f776e00257590
:1065d4000025632563006465746163686564006312
:1065e40068696c6400726f75746572006c656164cf
:1065f40065720073746172740073746f7000253077
:1066040034783a20006d617800313100ac730000b9
:10661400ba7300007c20252d34377320007c20259c
:106624002d343773207c007461626c65006c69736f
:1066340074007c202533632020007c2030782530b2
:10664400347820007c2025336420007c20253864a5
:1066540020007c2025396420007c253164007c20c6
:1066640000207c0030782530347820000608050aa4
:106674000b01010112000000c77300006f730000da
:1066840096730000cc730000d5730000df73000024
:10669400e1730000e37300009a7300002d00656e3f
:1066a40061626c650064697361626c650070726f2d
:1066b4006d697363756f7573006c6c61746e0072d1
:1066c4006c61746e006173796e63002d4900000083
:1066d400f8730000fe730000047400000a740000e4
:1066e400202530347800202573002063616e4576c0
:1066f4006963743d256400207472616e7354696d1e
:10670400653d2575206569643d002074696d656f7c
:1067140075743d25750020726574727944656c61e9
:10672400793d25750025752062797465732066723c
:106734006f6d20003a2069636d705f7365713d254c
:106744006420686c696d3d25642074696d653d2520
:10675400646d73003d005b6c656e203d20253375d0
:106764005d007c00202530325800202e2e0020258c
:106774006300203f00202e000312120612040505b8
:1067840030730000327300003f7300004c7300004c
:10679400507300005c7300005f73000063730000bb
:1067a400656e657267790004060000005c73000082
:1067b4006773000052784f6e5768656e49646c6564
:1067c4003a20256400446576696365547970653ab6
:1067d400202564004e6574776f726b446174613a6e
:1067e40020256400506172656e745072696f72691d
:1067f40074793a202564004c696e6b5175616c693b
:106804007479333a202575004c696e6b5175616c4f
:10681400697479323a202575004c696e6b51756143
:106824006c697479313a202575004c656164657230
:10683400436f73743a202575004964536571756517
:106844006e63653a20257500416374697665526ffd
:1068540075746572733a20257500536564427566d4
:1068640066657253697a653a2025750053656444f8
:106874006174616772616d436f756e743a2025753a
:1068840000526f75746549643a2030782530327847
:10689400004c696e6b5175616c6974794f75743a0b
:1068a400202575004c696e6b5175616c697479496a
:1068b4006e3a20257500526f757465436f73743a90
:1068c40020257500526f757465446174613a002d1a
:1068d4002000506172746974696f6e49643a2030a3
:1068e400782530387800576569676874696e673a47
:1068f400202575004461746156657273696f6e3a40
:1069040020257500537461626c6544617461566539
:106914007273696f6e3a202575004c656164657207
:10692400526f7574657249643a2030782530327834
:10693400004966496e556e6b6e6f776e50726f7458
:106944006f733a202575004966496e4572726f72fd
:10695400733a2025750049664f75744572726f72db
:10696400733a202575004966496e55636173745006
:106974006b74733a202575004966496e42726f61e3
:106984006463617374506b74733a202575004966af
:10699400496e44697363617264733a2025750049d2
:1069a400664f75745563617374506b74733a202524
:1069b400750049664f757442726f616463617374e4
:1069c400506b74733a2025750049664f7574446999
:1069d4007363617264733a202575004368696c645b
:1069e40049643a203078253034780054696d656ff5
:1069f40075743a202575004d6f64653a007e204415
:106a04006973636f76657279205265717565737405
:106a14002066726f6d20003a2076657273696f6e1e
:106a24003d25752c6a6f696e65723d2564003e20b4
:106a340000446f6e65004572726f722025643a20bf
:106a44002573002575207061636b657473207472ff
:106a5400616e736d69747465642c20257520706192
:106a6400636b6574732072656365697665642e0073
:106a7400205061636b6574206c6f7373203d202517
:106a8400752e257525252e0020526f756e642d7484
:106a9400726970206d696e2f6176672f6d61782041
:106aa4003d2025752f25752e25752f2575206d7391
:106ab4002e007c20253264207c20253464207c0038
:106ac4007c20256420007c20252d31367320002075
:106ad400007c2025303478207c2000207c20253246
:106ae4006420007c20253364207c00676574006882
:106af400656c700045787420416464723a200052d9
:106b04006c6f633a202578004c696e6b2051756177
:106b14006c69747920496e3a202564004c696e6b67
:106b2400205175616c697479204f75743a2025641d
:106b3400004167653a20256400444941475f474561
:106b4400542e7273702f616e732066726f6d200005
:106b54003a200045787420416464726573733a2066
:106b64002700526c6f6331363a2030782530347800
:106b740000436f6e6e65637469766974793a005286
:106b84006f7574653a004c65616465722044617484
:106b9400613a004e6574776f726b20446174613a98
:106ba4002027004950362041646472657373204c79
:106bb4006973743a004d414320436f756e74657276
:106bc400733a0042617474657279204c6576656c21
:106bd4003a202575252500537570706c7920566f01
:106be4006c746167653a2025756d56004368696c5d
:106bf40064205461626c653a004368616e6e656c32
:106c04002050616765733a20270027004d61782082
:106c14004368696c642054696d656f75743a202506
:106c240075007c202531306420007c2025356420cb
:106c3400007c2025346420007c253364007c2025de
:106c440031642000256420004368696c6420494451
:106c54003a20256400526c6f633a20253034780062
:106c64004d6f64653a202573004e65742044617449
:106c7400613a2025640054696d656f75743a202566
:106c84006400525353493a2025640005080c0c074c
:106c940006010101030307126c7300006f73000007
:106ca400af7600009673000089730000b776000089
:106cb400df730000e1730000e3730000bc760000a2
:106cc400c0760000c47600009a7300007c20253250
:106cd4006420007c202536642000207c2025346438
:106ce400207c00416c6c6f633a20256400526f7500
:106cf4007465722049443a202564004e65787420f6
:106d0400486f703a2025303478004c696e6b3a2015
:106d1400256400436f73743a2025640004080a0b49
:106d240007080512060000006c7300006f73000072
:106d3400767300007f730000897300008f73000076
:106d4400967300009a730000a7730000636f756e5a
:106d540074657200677561726474696d650072654b
:106d640074726965730064697265637400696e6442
:106d74006972656374003078253034780072656d0b
:106d84006f766500616c6c00737570706f727465fa
:106d94006400307825780070726566657272656487
:106da4000062627200627566666572696e666f0083
:106db4006363617468726573686f6c6400636861af
:106dc4006e6e656c006368696c6469700063686901
:106dd4006c646d6178006368696c6474696d656f77
:106de400757400636f617000636f6e74657874729c
:106df4006575736564656c617900636f756e746540
:106e0400727300646174617365740064656c6179a4
:106e140074696d65726d696e00646973636f76651c
:106e24007200646e7300646f6d61696e6e616d658e
:106e3400006569646361636865006575693634007b
:106e4400657874616464720065787470616e6964f5
:106e540000666163746f7279726573657400666548
:106e64006d006966636f6e6669670069706164646a
:106e7400720069706d61646472006a6f696e657234
:106e8400706f7274006b657973657175656e636597
:106e9400006c656164657264617461006c65616451
:106ea4006572776569676874006c6f67006d6f64fd
:106eb40065006d756c7469726164696f006e6569f3
:106ec4006768626f72006e657464617461006e65f8
:106ed4007473746174006e6574776f726b64696146
:106ee400676e6f73746963006e6574776f726b6934
:106ef4006474696d656f7574006e6574776f726b19
:106f04006b6579006e6574776f726b6e616d650089
:106f140070616e696400706172656e740070617294
:106f2400656e747072696f726974790070617274dd
:106f34006974696f6e69640070696e6700706f6c64
:106f44006c706572696f6400707265666572726fe9
:106f54007574657269640070736b630072637000aa
:106f6400726567696f6e0072656c65617365726fd7
:106f740075746572696400726c6f63313600726f88
:106f840075746572646f776e677261646574687234
:106f94006573686f6c6400726f75746572656c6993
:106fa4006769626c6500726f7574657273656c6590
:106fb4006374696f6e6a697474657200726f757454
:106fc4006572757067726164657468726573686f01
:106fd4006c64007363616e0073696e676c65746fd3
:106fe4006e00737461746500746872656164007422
:106ff40078706f7765720075647000756e73656381
:10700400757265706f727400a56d00008170020066
:1070140000000000a96d000099ac0200000000000f
:10702400b46d0000f5d2020000000000c16d000044
:107034001979020000000000e3650000c910010096
:1070440000000000c96d0000fd32020000000000d5
:10705400d16d0000f570030000000000da6d00003f
:107064006970030000000000e76d0000ff8e03005c
:1070740000000000ec6d00007d70030000000000c3
:10708400fe6d0000c941010000000000076e000011
:10709400138f0300000000000f6e0000a1c0020067
:1070a400000000001d6e0000d5b6020000000000c4
:1070b400266e0000fd890300000000002a6e000017
:1070c400ed25030000000000356e0000b12e030022
:1070d400000000003e6e0000414b03000000000071
:1070e400446e0000cd0b0300000000004c6e000055
:1070f400010c030000000000556e0000158a030017
:1071040000000000626e0000d56102000000000073
:10711400666e0000f9930200000000006f6e00002c
:10712400d180010000000000766e00003daa01003d
:10713400000000007e6e00000971030000000000e2
:10714400896e00007db7020000000000956e00000b
:107154009593020000000000a06e000091700300ef
:1071640000000000ad6e0000690003000000000094
:10717400716300009183020000000000b16e000002
:1071840051fc010000000000b66e0000310b03004a
:1071940000000000c16e0000f98101000000000041
:1071a400ca6e0000098f030000000000d26e0000c8
:1071b400459d020000000000da6e0000390e020056
:1071c40000000000ec6e0000a57003000000000049
:1071d400fd6e0000ddf7020000000000086f0000f3
:1071e4001926030000000000146f000001180300ba
:1071f400000000001a6f0000c194020000000000ab
:10720400216f0000a9c8020000000000306f0000d8
:10721400b5330300000000003c6f000081530100ff
:1072240000000000416f000085d302000000000050
:107234004c6f0000bd7c030000000000b16600003c
:10724400e5890200000000005b6f00009d670200fa
:1072540000000000606f0000a9ed020000000000c3
:10726400646f0000f1ac0200000000006b6f0000ce
:10727400cd7c03000000000003640000098a0300c1
:10728400000000007b6f0000e14a030000000000e2
:10729400e96500002521010000000000826f000064
:1072a400b9700300000000009b6f00007f0803001a
:1072b40000000000aa6f0000cd7003000000000071
:1072c400c06f0000e170030000000000d76f0000f1
:1072d400890d020000000000dc6f00008d33030004
:1072e40000000000e66f0000413f020000000000c3
:1072f400ec6f00005d94020000000000f36f0000da
:107304003dd3020000000000fb6f00001d8f03004e
:1073140000000000ff6f0000e90e02000000000002
:1073240019650000e9ed0200000000004a004e6506
:1073340074776f726b204e616d6500457874656e6d
:107344006465642050414e0050414e004d4143203d
:10735400416464726573730043680064426d004c59
:107364005149005253534900494400524c4f433150
:1073740036004e65787420486f7000506174682040
:10738400436f7374004c5120496e004c51204f756b
:10739400740041676500457874656e646564204dca
:1073a4004143004c696e6b004c6f63616c20416417
:1073b400647265737300506565722041646472651c
:1073c400737300526f6c65004176672052535349c2
:1073d400004c617374205253534900520044004ed0
:1073e40000736c616163006468637036006d616e84
:1073f40075616c00636163686500736e6f6f700024
:107404007175657279007265747279005478537578
:1074140063636573730054784661696c65640052f4
:1074240078537563636573730052784661696c655c
:107434006400526f6c652044697361626c6564001a
:10744400526f6c6520446574616368656400526fb3
:107454006c65204368696c6400526f6c6520526fe0
:107464007574657200526f6c65204c656164657259
:107474000041747461636820417474656d70747341
:1074840000506172746974696f6e204964204368a6
:10749400616e676573004265747465722050617231
:1074a400746974696f6e20417474616368204174f7
:1074b40074656d70747300506172656e74204368f6
:1074c400616e676573005278556e69636173740009
:1074d400527842726f6164636173740052784461dc
:1074e400746100527844617461506f6c6c0052781e
:1074f400426561636f6e005278426561636f6e52dc
:107504006571756573740052784f746865720052c2
:10751400784164647265737346696c7465726564fa
:10752400005278446573744164647246696c74658e
:107534007265640052784475706c69636174656443
:107544000052784572724e6f4672616d65005278d2
:107554004572724e6f556e6b6e6f776e4e656967ce
:1075640068626f72005278457272496e76616c6916
:107574006453726341646472005278457272536555
:107584006300527845727246637300527845727292
:107594004f7468657200000048000000ca7400005f
:1075a4004c000000d474000050000000e07400009f
:1075b40054000000e774000058000000f27400005a
:1075c4005c000000fb740000600000000b7500000c
:1075d40064000000137500006800000025750000b9
:1075e4006c00000038750000700000004575000054
:1075f40074000000527500007800000069750000f6
:107604007c0000007d75000080000000867500008d
:10761400840000008f7500005478556e69636173af
:107624007400547842726f616463617374005478b7
:1076340041636b5265717565737465640054784178
:10764400636b65640054784e6f41636b526571756a
:1076540065737465640054784461746100547844bb
:10766400617461506f6c6c005478426561636f6e35
:10767400005478426561636f6e5265717565737409
:107684000054784f74686572005478526574727946
:1076940000547845727243636100547845727242b3
:1076a4007573794368616e6e656c0054696d656fbe
:1076b400757400435f564e005665720043534c0088
:1076c400514d7367436e7400366c6f2073656e643e
:1076d40000366c6f207265617300697036006d70de
:1076e4006c0061727000636f617020736563757202
:1076f40065006170706c69636174696f6e20636f9b
:0477040061700000b0
:020000040000fa
:10770800f0b516001f00446a9db00390259d0696ab
:107718000797002c08d1102030f0b2f8039b446082
:10772800586284600460c460039b5b6a196800291e
:107738000bd05a68012393404a608b6003982af063
:1077480012f80022039b5b6a1a60002f1cda0123df
:107758002b607b005b080793079dba4b2a001893a0
:107768001a409a421cd1b84b249a28031360069bee
:10777800000b1843b54b01d100f081fd269a002a71
:1077880005d10933059308e000232b60e4e71a00cc
:10779800093205920c33269a136005981db0f0bd86
:1077a800069b079c109311941098119900220023ae
:1077b8001ef00cff041e0ed00123249a1360a34b65
:1077c8001a000d320592269a002ae6d01a00269948
:1077d8000e320a60e1e71aab01931bab00930398e2
:1077e800109a119b19f0e6ff6e000490760d00d1f7
:1077f8007ee010981199119b954a1b031b0b1a43a5
:107808001100944b1694f6180022934b01f0b4f92a
:10781800924a934b03f060f9924a934b01f092fc21
:10782800040030000d0020f09bfc904a904b03f0c0
:1078380053f902000b002000290001f083fc04002a
:107848000d0021f0d7fb0022029000232000290020
:107858001ef0c2fe00280bd0029820f081fc2b00fd
:1078680022001ef0b3fe43425841029b1b1a0293aa
:1078780001231393029b162b0fd810981199da0045
:107888007c4b9b181a685b681ef0a6fe00284bd03c
:10789800029b013b0293002313931a9b9e1b002318
:1078a80008933300013b0b9304d501239b1b0893da
:1078b80000230b93029b002b38db029a0b9b944608
:1078c80063440b93002312920d93229b0124092bee
:1078d80000d985e0052b02dd0024043b2293229b7e
:1078e800981e032800d985e02ff0acff296b697832
:1078f8001a9b1b9a9e18604bf218202a0fdd402312
:107908009b1a9d405d4b0698f318d840284324f0f5
:10791800cdfa01235a4c013e0919169374e7202326
:1079280006989b1a9840f2e71390b6e7089b029acc
:107938009b1a089353420d9300231293c5e7002323
:107948000f93239b002b59dc01230c930a93239359
:10795800039a556a00226a6004321000143069687c
:1079680098424fd9039820f08bfb039b28605b6af1
:107978001b6805930a9b0e2b00d9f7e0002c00d159
:10798800f4e0029b002b00dc7ee01a000f21394b4b
:107998000a40d2009b181e685f68029b02241d11d2
:1079a800eb060ad5374b0d401a6a5b6a1098119995
:1079b80002f05ef9069007910134324b36e001235c
:1079c800bee70023239a0f939446029b63440c93cb
:1079d80001330a93002bbbdc0123b9e70123f1e74c
:1079e80000230f942293013b00220c930a932392c5
:1079f8001333ade701230f93023bf5e7239b0c9369
:107a08000a93a5e7013169605200a6e701231d42e8
:107a180009d0e4180e9b30001a685b68390003f03f
:107a28005bf806000f000e9b6d1008330e93002db7
:107a3800ecd10698079932003b0002f019f906903c
:107a480007913ce00000f07f0f270000cc85030081
:107a58000000f03f01fcffff0000f83f61436f6347
:107a6800a787d23fb3c8608b288ac63ffb799f504f
